{"abi":[{"type":"constructor","inputs":[{"name":"_usdc","type":"address","internalType":"address"}],"stateMutability":"nonpayable"},{"type":"function","name":"USDC","inputs":[],"outputs":[{"name":"","type":"address","internalType":"contract IERC20"}],"stateMutability":"view"},{"type":"function","name":"campaignCounter","inputs":[],"outputs":[{"name":"","type":"uint256","internalType":"uint256"}],"stateMutability":"view"},{"type":"function","name":"campaignParticipants","inputs":[{"name":"","type":"uint256","internalType":"uint256"},{"name":"","type":"uint256","internalType":"uint256"}],"outputs":[{"name":"","type":"address","internalType":"address"}],"stateMutability":"view"},{"type":"function","name":"campaigns","inputs":[{"name":"","type":"uint256","internalType":"uint256"}],"outputs":[{"name":"organizer","type":"address","internalType":"address"},{"name":"campaignType","type":"uint8","internalType":"enum GroupPurchasing.CampaignType"},{"name":"direction","type":"uint8","internalType":"enum GroupPurchasing.Direction"},{"name":"productName","type":"string","internalType":"string"},{"name":"productDescription","type":"string","internalType":"string"},{"name":"minOrderQuantity","type":"uint256","internalType":"uint256"},{"name":"currentQuantity","type":"uint256","internalType":"uint256"},{"name":"pricePerUnit","type":"uint256","internalType":"uint256"},{"name":"unit","type":"string","internalType":"string"},{"name":"containerReqs","type":"tuple","internalType":"struct GroupPurchasing.ContainerRequirements","components":[{"name":"containerType","type":"uint8","internalType":"uint8"},{"name":"minTempCelsius","type":"int16","internalType":"int16"},{"name":"maxTempCelsius","type":"int16","internalType":"int16"},{"name":"maxWeightKg","type":"uint256","internalType":"uint256"},{"name":"currentWeightKg","type":"uint256","internalType":"uint256"},{"name":"requiresVentilation","type":"bool","internalType":"bool"},{"name":"requiresRefrigeration","type":"bool","internalType":"bool"}]},{"name":"targetAmount","type":"uint256","internalType":"uint256"},{"name":"currentAmount","type":"uint256","internalType":"uint256"},{"name":"deadline","type":"uint256","internalType":"uint256"},{"name":"status","type":"uint8","internalType":"enum GroupPurchasing.CampaignStatus"},{"name":"createdAt","type":"uint256","internalType":"uint256"},{"name":"participantCount","type":"uint256","internalType":"uint256"},{"name":"originPort","type":"string","internalType":"string"},{"name":"destinationPort","type":"string","internalType":"string"}],"stateMutability":"view"},{"type":"function","name":"cancelCampaign","inputs":[{"name":"_campaignId","type":"uint256","internalType":"uint256"}],"outputs":[],"stateMutability":"nonpayable"},{"type":"function","name":"commitments","inputs":[{"name":"","type":"uint256","internalType":"uint256"},{"name":"","type":"address","internalType":"address"}],"outputs":[{"name":"quantity","type":"uint256","internalType":"uint256"},{"name":"payment","type":"uint256","internalType":"uint256"},{"name":"shippingAddress","type":"string","internalType":"string"}],"stateMutability":"view"},{"type":"function","name":"createContainerCampaign","inputs":[{"name":"_productName","type":"string","internalType":"string"},{"name":"_productDescription","type":"string","internalType":"string"},{"name":"_direction","type":"uint8","internalType":"enum GroupPurchasing.Direction"},{"name":"_originPort","type":"string","internalType":"string"},{"name":"_destinationPort","type":"string","internalType":"string"},{"name":"_containerReqs","type":"tuple","internalType":"struct GroupPurchasing.ContainerRequirements","components":[{"name":"containerType","type":"uint8","internalType":"uint8"},{"name":"minTempCelsius","type":"int16","internalType":"int16"},{"name":"maxTempCelsius","type":"int16","internalType":"int16"},{"name":"maxWeightKg","type":"uint256","internalType":"uint256"},{"name":"currentWeightKg","type":"uint256","internalType":"uint256"},{"name":"requiresVentilation","type":"bool","internalType":"bool"},{"name":"requiresRefrigeration","type":"bool","internalType":"bool"}]},{"name":"_targetAmount","type":"uint256","internalType":"uint256"},{"name":"_deadline","type":"uint256","internalType":"uint256"}],"outputs":[{"name":"","type":"uint256","internalType":"uint256"}],"stateMutability":"nonpayable"},{"type":"function","name":"createSingleProductCampaign","inputs":[{"name":"_productName","type":"string","internalType":"string"},{"name":"_productDescription","type":"string","internalType":"string"},{"name":"_minOrderQuantity","type":"uint256","internalType":"uint256"},{"name":"_pricePerUnit","type":"uint256","internalType":"uint256"},{"name":"_unit","type":"string","internalType":"string"},{"name":"_targetAmount","type":"uint256","internalType":"uint256"},{"name":"_deadline","type":"uint256","internalType":"uint256"}],"outputs":[{"name":"","type":"uint256","internalType":"uint256"}],"stateMutability":"nonpayable"},{"type":"function","name":"exists","inputs":[{"name":"_campaignId","type":"uint256","internalType":"uint256"}],"outputs":[{"name":"","type":"bool","internalType":"bool"}],"stateMutability":"view"},{"type":"function","name":"getBackhaulCampaigns","inputs":[{"name":"_limit","type":"uint256","internalType":"uint256"}],"outputs":[{"name":"","type":"uint256[]","internalType":"uint256[]"}],"stateMutability":"view"},{"type":"function","name":"getCampaign","inputs":[{"name":"_campaignId","type":"uint256","internalType":"uint256"}],"outputs":[{"name":"organizer","type":"address","internalType":"address"},{"name":"campaignType","type":"uint8","internalType":"enum GroupPurchasing.CampaignType"},{"name":"direction","type":"uint8","internalType":"enum GroupPurchasing.Direction"},{"name":"productName","type":"string","internalType":"string"},{"name":"productDescription","type":"string","internalType":"string"},{"name":"minOrderQuantity","type":"uint256","internalType":"uint256"},{"name":"currentQuantity","type":"uint256","internalType":"uint256"},{"name":"pricePerUnit","type":"uint256","internalType":"uint256"},{"name":"unit","type":"string","internalType":"string"},{"name":"targetAmount","type":"uint256","internalType":"uint256"},{"name":"currentAmount","type":"uint256","internalType":"uint256"},{"name":"deadline","type":"uint256","internalType":"uint256"},{"name":"status","type":"uint8","internalType":"enum GroupPurchasing.CampaignStatus"},{"name":"createdAt","type":"uint256","internalType":"uint256"},{"name":"participantCount","type":"uint256","internalType":"uint256"},{"name":"originPort","type":"string","internalType":"string"},{"name":"destinationPort","type":"string","internalType":"string"}],"stateMutability":"view"},{"type":"function","name":"getCampaignProgress","inputs":[{"name":"_campaignId","type":"uint256","internalType":"uint256"}],"outputs":[{"name":"currentAmount","type":"uint256","internalType":"uint256"},{"name":"targetAmount","type":"uint256","internalType":"uint256"},{"name":"percentComplete","type":"uint256","internalType":"uint256"},{"name":"participantCount","type":"uint256","internalType":"uint256"}],"stateMutability":"view"},{"type":"function","name":"getCampaignsByDirection","inputs":[{"name":"_direction","type":"uint8","internalType":"enum GroupPurchasing.Direction"},{"name":"_limit","type":"uint256","internalType":"uint256"}],"outputs":[{"name":"","type":"uint256[]","internalType":"uint256[]"}],"stateMutability":"view"},{"type":"function","name":"getCommitment","inputs":[{"name":"_campaignId","type":"uint256","internalType":"uint256"},{"name":"_participant","type":"address","internalType":"address"}],"outputs":[{"name":"quantity","type":"uint256","internalType":"uint256"},{"name":"payment","type":"uint256","internalType":"uint256"},{"name":"shippingAddress","type":"string","internalType":"string"}],"stateMutability":"view"},{"type":"function","name":"getContainerRequirements","inputs":[{"name":"_campaignId","type":"uint256","internalType":"uint256"}],"outputs":[{"name":"","type":"tuple","internalType":"struct GroupPurchasing.ContainerRequirements","components":[{"name":"containerType","type":"uint8","internalType":"uint8"},{"name":"minTempCelsius","type":"int16","internalType":"int16"},{"name":"maxTempCelsius","type":"int16","internalType":"int16"},{"name":"maxWeightKg","type":"uint256","internalType":"uint256"},{"name":"currentWeightKg","type":"uint256","internalType":"uint256"},{"name":"requiresVentilation","type":"bool","internalType":"bool"},{"name":"requiresRefrigeration","type":"bool","internalType":"bool"}]}],"stateMutability":"view"},{"type":"function","name":"getInboundCampaigns","inputs":[{"name":"_limit","type":"uint256","internalType":"uint256"}],"outputs":[{"name":"","type":"uint256[]","internalType":"uint256[]"}],"stateMutability":"view"},{"type":"function","name":"getParticipants","inputs":[{"name":"_campaignId","type":"uint256","internalType":"uint256"}],"outputs":[{"name":"","type":"address[]","internalType":"address[]"}],"stateMutability":"view"},{"type":"function","name":"getTotalCampaigns","inputs":[],"outputs":[{"name":"","type":"uint256","internalType":"uint256"}],"stateMutability":"view"},{"type":"function","name":"joinContainerCampaign","inputs":[{"name":"_campaignId","type":"uint256","internalType":"uint256"},{"name":"_payment","type":"uint256","internalType":"uint256"},{"name":"_weightKg","type":"uint256","internalType":"uint256"},{"name":"_shippingAddress","type":"string","internalType":"string"}],"outputs":[],"stateMutability":"nonpayable"},{"type":"function","name":"joinSingleProductCampaign","inputs":[{"name":"_campaignId","type":"uint256","internalType":"uint256"},{"name":"_quantity","type":"uint256","internalType":"uint256"},{"name":"_shippingAddress","type":"string","internalType":"string"}],"outputs":[],"stateMutability":"nonpayable"},{"type":"function","name":"owner","inputs":[],"outputs":[{"name":"","type":"address","internalType":"address"}],"stateMutability":"view"},{"type":"function","name":"renounceOwnership","inputs":[],"outputs":[],"stateMutability":"nonpayable"},{"type":"function","name":"transferOwnership","inputs":[{"name":"newOwner","type":"address","internalType":"address"}],"outputs":[],"stateMutability":"nonpayable"},{"type":"event","name":"CampaignCreated","inputs":[{"name":"campaignId","type":"uint256","indexed":true,"internalType":"uint256"},{"name":"organizer","type":"address","indexed":true,"internalType":"address"},{"name":"campaignType","type":"uint8","indexed":false,"internalType":"enum GroupPurchasing.CampaignType"},{"name":"direction","type":"uint8","indexed":false,"internalType":"enum GroupPurchasing.Direction"},{"name":"productName","type":"string","indexed":false,"internalType":"string"},{"name":"targetAmount","type":"uint256","indexed":false,"internalType":"uint256"},{"name":"deadline","type":"uint256","indexed":false,"internalType":"uint256"},{"name":"originPort","type":"string","indexed":false,"internalType":"string"},{"name":"destinationPort","type":"string","indexed":false,"internalType":"string"}],"anonymous":false},{"type":"event","name":"CampaignStatusUpdated","inputs":[{"name":"campaignId","type":"uint256","indexed":true,"internalType":"uint256"},{"name":"status","type":"uint8","indexed":false,"internalType":"enum GroupPurchasing.CampaignStatus"}],"anonymous":false},{"type":"event","name":"OwnershipTransferred","inputs":[{"name":"previousOwner","type":"address","indexed":true,"internalType":"address"},{"name":"newOwner","type":"address","indexed":true,"internalType":"address"}],"anonymous":false},{"type":"event","name":"ProductCommitmentAdded","inputs":[{"name":"campaignId","type":"uint256","indexed":true,"internalType":"uint256"},{"name":"participant","type":"address","indexed":true,"internalType":"address"},{"name":"quantity","type":"uint256","indexed":false,"internalType":"uint256"},{"name":"payment","type":"uint256","indexed":false,"internalType":"uint256"}],"anonymous":false},{"type":"error","name":"OwnableInvalidOwner","inputs":[{"name":"owner","type":"address","internalType":"address"}]},{"type":"error","name":"OwnableUnauthorizedAccount","inputs":[{"name":"account","type":"address","internalType":"address"}]}],"bytecode":{"object":"0x60a0346100df57601f6127be38819003918201601f19168301916001600160401b038311848410176100e3578084926020946040528339810103126100df57516001600160a01b038116908190036100df5733156100cc575f8054336001600160a01b0319821681178355604051939290916001600160a01b0316907f8be0079c531659141344cd1fd0a4f28419497f9722a3daafe3b4186f6b6457e09080a36080526126c690816100f882396080518181816102e3015281816110e70152818161149401526117f10152f35b631e4fbdf760e01b5f525f60045260245ffd5b5f80fd5b634e487b7160e01b5f52604160045260245ffdfe60a06040526004361015610011575f80fd5b5f3560e01c80630510616a14611c13578063080f14c114611b17578063141961bc1461194257806316f43dd41461011657806335abd49b146118f257806345598b4a146116be5780634f558e791461169c5780635598f8cc1461151a578063715018a6146114c357806389a302711461147f57806389fb2682146101c05780638ab9b92a146113ed5780638d5ab0d914610ff95780638da5cb5b14610fd25780639be1bcf814610ed35780639c802daf1461086d578063aca5b03514610800578063c1e3bd3e14610748578063c396178b14610639578063da90b8ab1461021f578063e90d4c06146101c0578063f2fde38b146101375763fca604d714610116575f80fd5b34610133575f366003190112610133576020600154604051908152f35b5f80fd5b34610133576020366003190112610133576004356001600160a01b038116908190036101335761016561264a565b80156101ad575f80546001600160a01b03198116831782556001600160a01b0316907f8be0079c531659141344cd1fd0a4f28419497f9722a3daafe3b4186f6b6457e09080a3005b631e4fbdf760e01b5f525f60045260245ffd5b34610133576040366003190112610133576101d9612332565b6004355f52600360205260405f209060018060a01b03165f5260205260405f20805461021b61020f600260018501549401612182565b60405193849384612348565b0390f35b34610133576060366003190112610133576024356004356044356001600160401b038111610133576102559036906004016120bc565b91815f52600260205260405f2090600e82019160ff83541660048110156106255761028090156124ae565b61028f600d820154421061251f565b81156105e057600581015491808302928084048214901517156105cc57821561058e576040516323b872dd60e01b8152336004820152306024820152604481018490526020816064815f6001600160a01b037f0000000000000000000000000000000000000000000000000000000000000000165af180156105835761031c915f91610554575b50612578565b5f8581526003602090815260408083203384529091529020600101541561052a575b845f52600360205260405f2060018060a01b0333165f5260205260405f2061036782825461256b565b9055845f52600360205260405f2060018060a01b0333165f52602052600160405f200161039584825461256b565b9055845f52600360205260405f2060018060a01b0333165f52602052600260405f200186516001600160401b038111610516576103dc816103d6845461214a565b84612461565b6020601f82116001146104af578190600b969798995f926104a4575b50508160011b915f199060031b1c19161790555b6004820161041b82825461256b565b9055600c82019361042d81865461256b565b8095556040519182526020820152857f456735a6b893ebb3ed8c5167c4cef45052323041fc088713981546bd037313f660403393a30154111561046c57005b600160ff198254161790557f1289cf89aaaed53d6590c1b7996ba434edb31dcbd322d0b88ff0c02f64bbdeef602060405160018152a2005b0151905089806103f8565b601f19821698835f52815f20995f5b8181106104fe575091600b9798999a918460019594106104e6575b505050811b01905561040c565b01515f1960f88460031b161c191690558980806104d9565b838301518c556001909b019a602093840193016104be565b634e487b7160e01b5f52604160045260245ffd5b845f52600460205261053f3360405f206125bb565b6010820161054d815461240b565b905561033e565b610576915060203d60201161057c575b61056e818361209b565b810190612507565b88610316565b503d610564565b6040513d5f823e3d90fd5b60405162461bcd60e51b8152602060048201526016602482015275125b9d985b1a59081c185e5b595b9d08185b5bdd5b9d60521b6044820152606490fd5b634e487b7160e01b5f52601160045260245ffd5b60405162461bcd60e51b815260206004820152601f60248201527f5175616e74697479206d7573742062652067726561746572207468616e2030006044820152606490fd5b634e487b7160e01b5f52602160045260245ffd5b346101335760403660031901126101335760043560028110156101335760243561066281612618565b5f925f92600154935b8481108061073f575b156106fd57805f5260026020528260ff60405f205460a81c1661069682612280565b61069f81612280565b14806106da575b6106b9575b6106b49061240b565b61066b565b946106d281876106cc6106b494886124f3565b5261240b565b9590506106ab565b50805f52600260205260ff600e60405f20015416600481101561062557156106a6565b838661070881612618565b915f5b828110610720576040518061021b8682612111565b8061072d600192846124f3565b5161073882876124f3565b520161070b565b50818610610674565b34610133576020366003190112610133576004355f52600460205260405f20604051806020835491828152019081935f5260205f20905f5b8181106107e1575050508161079691038261209b565b604051918291602083019060208452518091526040830191905f5b8181106107bf575050500390f35b82516001600160a01b03168452859450602093840193909201916001016107b1565b82546001600160a01b0316845260209093019260019283019201610780565b34610133576020366003190112610133575f60c060405161082081612080565b8281528260208201528260408201528260608201528260808201528260a082015201526004355f52600260205260e061085e600760405f2001612222565b61086b60405180926122ae565bf35b34610133576101c0366003190112610133576004356001600160401b0381116101335761089e9036906004016120bc565b6024356001600160401b038111610133576108bd9036906004016120bc565b9060026044351015610133576064356001600160401b038111610133576108e89036906004016120bc565b916084356001600160401b038111610133576109089036906004016120bc565b9060e03660a3190112610133576040519261092284612080565b60a43560ff8116810361013357845260c435938460010b8503610133576020810194855260e435928360010b840361013357604082019384526060820191610104358352608081016101243581526101443580151581036101335760a0830152610164359081151582036101335760c0830191825261018435946101a435976109ac871515612367565b8b5115610e9757895115610e52576109c5428a116123bf565b6001549a6109d28c61240b565b6001555f8c8152600260205260409020805460ff60a01b1933166001600160a81b031990911617600160a01b17815596610a0d604435612280565b875460ff60a81b191660443560a81b60ff60a81b1617885589516001600160401b03811161051657610a4f81610a4660018c015461214a565b60018c01612461565b806020601f8211600114610de9575f91610dde575b508160011b915f199060031b1c19161760018901555b805160028901916001600160401b038211610516578190610aa582610a9f865461214a565b86612461565b602090601f8311600114610d7b575f92610d70575b50508160011b915f199060031b1c19161790555b600787019160ff8751168354925160081b62ffff0016915160181b64ffff000000169264ffffffffff1916171717905551600885015551600984015560a0600a840192015115159060ff61ff0084549251151560081b1692169061ffff19161717905581600b82015583600d820155600e810160ff19815416905542600f8201556011810187516001600160401b03811161051657610b71816103d6845461214a565b6020601f8211600114610d0a57908060129493925f91610cff575b508160011b915f199060031b1c19161790555b01958451936001600160401b038511610516578785610bc589976103d660209c5461214a565b89601f8211600114610c745793610c5e93610c4f9383610c3798945f5160206126715f395f51905f529a985f91610c69575b508160011b915f199060031b1c19161790555b60405196879660018852610c1f604435612280565b6044358e89015260e0604089015260e088019061228a565b926060870152608086015284820360a086015261228a565b82810360c0840152339661228a565b0390a3604051908152f35b90508c01518f610bf7565b96959493929190601f19811697825f52805f20908a5f5b8b8110610ce3575083610c4f9693610c379a999693600193610c5e9a975f5160206126715f395f51905f529e9f10610ccb575b505050811b019055610c0a565b01515f1960f88460031b161c191690558f808e610cbe565b9082015183558c9950600190920191908d01908b908e01610c8b565b90508a01518b610b8c565b601f19821690835f52805f20915f5b8c828210610d58575050918391601296959460019410610d40575b5050811b019055610b9f565b8c01515f1960f88460031b161c191690558b80610d34565b60018495602093958493015181550194019201610d19565b015190505f80610aba565b5f8581528281209350601f198516905b818110610dc65750908460019594939210610dae575b505050811b019055610ace565b01515f1960f88460031b161c191690555f8080610da1565b92936020600181928786015181550195019301610d8b565b90508b01515f610a64565b915060018a015f52815f205f925b8d601f1984168510610e3b57506001935082601f19811610610e23575b5050811b016001890155610a7a565b8d01515f1960f88460031b161c191690555f80610e14565b810151825560209384019360019092019101610df7565b60405162461bcd60e51b815260206004820152601960248201527f44657374696e6174696f6e20706f7274207265717569726564000000000000006044820152606490fd5b60405162461bcd60e51b815260206004820152601460248201527313dc9a59da5b881c1bdc9d081c995c5d5a5c995960621b6044820152606490fd5b3461013357602036600319011261013357600435610ef081612618565b6001545f929091908390815b84811080610fc9575b15610f8757805f5260026020528260ff60405f205460a81c16906106255780610f2f600192612280565b1480610f64575b610f49575b610f449061240b565b610efc565b94610f5c81876106cc610f4494886124f3565b959050610f3b565b50805f52600260205260ff600e60405f2001541660048110156106255715610f36565b8386610f9281612618565b915f5b828110610faa576040518061021b8682612111565b80610fb7600192846124f3565b51610fc282876124f3565b5201610f95565b50818610610f05565b34610133575f366003190112610133575f546040516001600160a01b039091168152602090f35b34610133576080366003190112610133576024356004356044356064356001600160401b038111610133576110329036906004016120bc565b92825f52600260205260405f20600e81019260ff84541660048110156106255761105c90156124ae565b8154600160ff8260a01c1661107081612280565b036113a85760a81c60ff1661108481612280565b61136357611097600d830154421061251f565b821561131e57600982016110ac82825461256b565b6008840154106112cf576040516323b872dd60e01b8152336004820152306024820152604481018590526020816064815f6001600160a01b037f0000000000000000000000000000000000000000000000000000000000000000165af180156105835761111f915f916112b05750612578565b5f86815260036020908152604080832033845290915290206001015415611286575b855f52600360205260405f2060018060a01b0333165f5260205260405f2061116a83825461256b565b9055855f52600360205260405f2060018060a01b0333165f52602052600160405f200161119885825461256b565b9055855f52600360205260405f2060018060a01b0333165f52602052600260405f200187516001600160401b038111610516576111d9816103d6845461214a565b6020601f821160011461121f578190600b9798999a5f92611214575b50508160011b915f199060031b1c19161790555b61041b82825461256b565b015190508a806111f5565b601f19821699835f52815f209a5f5b81811061126e575091600b98999a9b91846001959410611256575b505050811b019055611209565b01515f1960f88460031b161c191690558a8080611249565b838301518d556001909c019b6020938401930161122e565b855f52600460205261129b3360405f206125bb565b601083016112a9815461240b565b9055611141565b6112c9915060203d60201161057c5761056e818361209b565b89610316565b60405162461bcd60e51b815260206004820152602160248201527f4578636565647320636f6e7461696e65722077656967687420636170616369746044820152607960f81b6064820152608490fd5b60405162461bcd60e51b815260206004820152601e60248201527f5061796d656e74206d7573742062652067726561746572207468616e203000006044820152606490fd5b60405162461bcd60e51b815260206004820152601760248201527f4e6f7420616e20696e626f756e642063616d706169676e0000000000000000006044820152606490fd5b60405162461bcd60e51b815260206004820152601860248201527f4e6f74206120636f6e7461696e65722063616d706169676e00000000000000006044820152606490fd5b34610133576020366003190112610133576004355f52600260205260405f205f90600b8101548015928315611443575b608093506010600c84015493015491604051938452602084015260408301526060820152f35b50600c820154926064840293808504606414901517156105cc5761146b57806080930461141d565b634e487b7160e01b5f52601260045260245ffd5b34610133575f366003190112610133576040517f00000000000000000000000000000000000000000000000000000000000000006001600160a01b03168152602090f35b34610133575f366003190112610133576114db61264a565b5f80546001600160a01b0319811682556001600160a01b03167f8be0079c531659141344cd1fd0a4f28419497f9722a3daafe3b4186f6b6457e08280a3005b34610133576020366003190112610133576004355f52600260205260405f2080546003820154600483015492600581015493600b82015490600c830154600d840154600e85015460ff1690600f860154926010870154946001880161157e90612182565b9961158b60028a01612182565b9b61159860068b01612182565b926115a560118c01612182565b9a6012016115b290612182565b6040516001600160a01b03851681529e8f9e919d8f959092906115db60ff60a083901c16612280565b8060a01c60ff1660208801528060a81c60ff166115f790612280565b60a81c60ff16604087015260608601610220905261022086016116199161228a565b858103608087015261162a9161228a565b9360a0015260c08d015260e08c01528a81036101008c015261164b9161228a565b956101208a0152610140890152610160880152610180870161166c916122fc565b6101a08601526101c08501528381036101e085015261168a9161228a565b82810361020084015261021b9161228a565b3461013357602036600319011261013357602060015460043510604051908152f35b34610133576020366003190112610133576004355f81815260026020526040902080546001600160a01b031633036118ad57600e0160ff81541660048110156106255761170b90156124ae565b600260ff19825416179055807f1289cf89aaaed53d6590c1b7996ba434edb31dcbd322d0b88ff0c02f64bbdeef602060405160028152a2805f52600460205260405f2090604051808360208295549384815201905f5260205f20925f5b81811061188b57505061177d9250038361209b565b5f5b8251811015611889576001600160a01b0361179a82856124f3565b5116825f52600360205260405f2060018060a01b0382165f52602052600160405f200154806117ce575b505060010161177f565b60405163a9059cbb60e01b8152600481019290925260248201526020816044815f7f00000000000000000000000000000000000000000000000000000000000000006001600160a01b03165af1908115610583575f9161186b575b50156118365783806117c4565b60405162461bcd60e51b815260206004820152600d60248201526c1499599d5b990819985a5b1959609a1b6044820152606490fd5b611883915060203d811161057c5761056e818361209b565b84611829565b005b84546001600160a01b0316835260019485019487945060209093019201611768565b60405162461bcd60e51b815260206004820152601960248201527f4f6e6c79206f7267616e697a65722063616e2063616e63656c000000000000006044820152606490fd5b34610133576040366003190112610133576024356004355f52600460205260405f2080548210156101335760209161192991612309565b905460405160039290921b1c6001600160a01b03168152f35b34610133576020366003190112610133576004355f52600260205260405f208054906001810161197190612182565b8161197e60028201612182565b91600382015492600483015460058401546006850161199c90612182565b956119a960078701612222565b96600b87015491600c88015493600d89015495600e8a015460ff1697600f8b01549960108c01549b6011016119dd90612182565b9d6012016119ea90612182565b9e604051608052600160a01b600190038116608051528060a01c60ff16611a1090612280565b8060a01c60ff16608051602001528060a81c60ff16611a2e90612280565b60a81c60ff1660805160400152608051606001610300905260805161030001611a569161228a565b608051810360805160800152611a6b9161228a565b9260805160a0015260805160c0015260805160e0015260805181036080516101000152611a979161228a565b9660805161012001611aa8916122ae565b60805161020001526080516102200152608051610240015260805161026001611ad0916122fc565b60805161028001526080516102a0015260805181036080516102c00152611af69161228a565b9060805182036080516102e0015260805191611b119161228a565b03608051f35b3461013357602036600319011261013357600435611b3481612618565b6001545f929091908390815b84811080611c0a575b15611bc857805f5260026020528260ff60405f205460a81c169061062557611b7081612280565b1580611ba5575b611b8a575b611b859061240b565b611b40565b94611b9d81876106cc611b8594886124f3565b959050611b7c565b50805f52600260205260ff600e60405f2001541660048110156106255715611b77565b8386611bd381612618565b915f5b828110611beb576040518061021b8682612111565b80611bf8600192846124f3565b51611c0382876124f3565b5201611bd6565b50818610611b49565b346101335760e0366003190112610133576004356001600160401b03811161013357611c439036906004016120bc565b6024356001600160401b03811161013357611c629036906004016120bc565b90604435906064356084356001600160401b03811161013357611c899036906004016120bc565b60a4359260c43592851561203c578015611ff757611ca8851515612367565b611cb34285116123bf565b60015495611cc08761240b565b60019081555f88815260026020526040902080546001600160b01b0319163361ffff60a01b191617815584519099918a01906001600160401b03811161051657611d0e816103d6845461214a565b806020601f8211600114611f96575f91611f8b575b508160011b915f199060031b1c19161790555b805160028a01916001600160401b038211610516578190611d5b82610a9f865461214a565b602090601f8311600114611f28575f92611f1d575b50508160011b915f199060031b1c19161790555b6003880155600587015560068601928251966001600160401b03881161051657878794611dbd60209a611db7895461214a565b89612461565b8990601f8311600114611ea15796826012935f95935f5160206126715f395f51905f52999a8792611e96575b50508160011b9186199060031b1c19161790555b87600b82015583600d820155600e810160ff19815416905542600f8201558260118201611e33611e2d825461214a565b82612434565b5501611e42611e2d825461214a565b55611e63604051925f84525f8985015260e0604085015260e084019061228a565b94606083015260808201525f86828603958660a085015282815281870160c08501520152604033940190a3604051908152f35b015190508d80611de9565b601f9792919719821690835f52885f20915f5b818110611f03575092601294925f5160206126715f395f51905f52999a600193835f999710611eeb575b505050811b019055611dfd565b0151871960f88460031b161c191690558d8080611ede565b828b01518455998d01998c99506001909301928d01611eb4565b015190508b80611d70565b5f8581528281209350601f198516905b818110611f735750908460019594939210611f5b575b505050811b019055611d84565b01515f1960f88460031b161c191690558b8080611f4e565b92936020600181928786015181550195019301611f38565b90508601518c611d23565b5f8481528181209250601f198416905b818110611fdf57509083600194939210611fc7575b5050811b019055611d36565b8801515f1960f88460031b161c191690558c80611fbb565b9192602060018192868d015181550194019201611fa6565b60405162461bcd60e51b815260206004820152601c60248201527f5072696365206d7573742062652067726561746572207468616e2030000000006044820152606490fd5b606460405162461bcd60e51b815260206004820152602060248201527f4d696e206f72646572206d7573742062652067726561746572207468616e20306044820152fd5b60e081019081106001600160401b0382111761051657604052565b90601f801991011681019081106001600160401b0382111761051657604052565b81601f82011215610133578035906001600160401b03821161051657604051926120f0601f8401601f19166020018561209b565b8284526020838301011161013357815f926020809301838601378301015290565b60206040818301928281528451809452019201905f5b8181106121345750505090565b8251845260209384019390920191600101612127565b90600182811c92168015612178575b602083101461216457565b634e487b7160e01b5f52602260045260245ffd5b91607f1691612159565b9060405191825f8254926121958461214a565b808452936001811690811561220057506001146121bc575b506121ba9250038361209b565b565b90505f9291925260205f20905f915b8183106121e45750509060206121ba928201015f6121ad565b60209193508060019154838589010152019101909184926121cb565b9050602092506121ba94915060ff191682840152151560051b8201015f6121ad565b9060405161222f81612080565b60c060ff60038395805483811686528060081c60010b602087015260181c60010b604086015260018101546060860152600281015460808601520154818116151560a085015260081c161515910152565b6002111561062557565b805180835260209291819084018484015e5f828201840152601f01601f1916010190565b60c0809160ff8151168452602081015160010b6020850152604081015160010b6040850152606081015160608501526080810151608085015260a0810151151560a085015201511515910152565b9060048210156106255752565b805482101561231e575f5260205f2001905f90565b634e487b7160e01b5f52603260045260245ffd5b602435906001600160a01b038216820361013357565b612364939260609282526020820152816040820152019061228a565b90565b1561236e57565b60405162461bcd60e51b8152602060048201526024808201527f54617267657420616d6f756e74206d75737420626520677265617465722074686044820152630616e20360e41b6064820152608490fd5b156123c657565b60405162461bcd60e51b815260206004820152601e60248201527f446561646c696e65206d75737420626520696e207468652066757475726500006044820152606490fd5b5f1981146105cc5760010190565b5f5b82811061242757505050565b5f8282015560010161241b565b90601f8111612441575050565b8061244a575050565b6121ba915f52601f60205f20910160051c90612419565b91601f821161246f57505050565b80821161247b57505050565b6121ba925f5260205f20916020601f830160051c92106124a6575b601f82910160051c039101612419565b5f9150612496565b156124b557565b60405162461bcd60e51b815260206004820152601660248201527543616d706169676e206973206e6f742061637469766560501b6044820152606490fd5b805182101561231e5760209160051b010190565b90816020910312610133575180151581036101335790565b1561252657565b60405162461bcd60e51b815260206004820152601860248201527f43616d706169676e20646561646c696e652070617373656400000000000000006044820152606490fd5b919082018092116105cc57565b1561257f57565b60405162461bcd60e51b81526020600482015260146024820152731554d110c81d1c985b9cd9995c8819985a5b195960621b6044820152606490fd5b805468010000000000000000811015610516576125dd91600182018155612309565b81546001600160a01b0393841660039290921b91821b9390911b1916919091179055565b6001600160401b0381116105165760051b60200190565b9061262282612601565b61262f604051918261209b565b8281528092612640601f1991612601565b0190602036910137565b5f546001600160a01b0316330361265d57565b63118cdaa760e01b5f523360045260245ffdfe48d5b17011b2a9a7cb8502f9945333218f0c1300286b72df27b407bdd42bd061a26469706673582212200eed7c0c94ab2bc651c3ff3afdd006417430206c8053b42a3bad1666cf8f632064736f6c63430008210033","linkReferences":{}},"methodIdentifiers":{"USDC()":"89a30271","campaignCounter()":"fca604d7","campaignParticipants(uint256,uint256)":"35abd49b","campaigns(uint256)":"141961bc","cancelCampaign(uint256)":"45598b4a","commitments(uint256,address)":"e90d4c06","createContainerCampaign(string,string,uint8,string,string,(uint8,int16,int16,uint256,uint256,bool,bool),uint256,uint256)":"9c802daf","createSingleProductCampaign(string,string,uint256,uint256,string,uint256,uint256)":"0510616a","exists(uint256)":"4f558e79","getBackhaulCampaigns(uint256)":"9be1bcf8","getCampaign(uint256)":"5598f8cc","getCampaignProgress(uint256)":"8ab9b92a","getCampaignsByDirection(uint8,uint256)":"c396178b","getCommitment(uint256,address)":"89fb2682","getContainerRequirements(uint256)":"aca5b035","getInboundCampaigns(uint256)":"080f14c1","getParticipants(uint256)":"c1e3bd3e","getTotalCampaigns()":"16f43dd4","joinContainerCampaign(uint256,uint256,uint256,string)":"8d5ab0d9","joinSingleProductCampaign(uint256,uint256,string)":"da90b8ab","owner()":"8da5cb5b","renounceOwnership()":"715018a6","transferOwnership(address)":"f2fde38b"},"id":23}