{"abi":[{"type":"constructor","inputs":[],"stateMutability":"nonpayable"},{"type":"function","name":"allowance","inputs":[{"name":"owner","type":"address","internalType":"address"},{"name":"spender","type":"address","internalType":"address"}],"outputs":[{"name":"","type":"uint256","internalType":"uint256"}],"stateMutability":"view"},{"type":"function","name":"approve","inputs":[{"name":"spender","type":"address","internalType":"address"},{"name":"value","type":"uint256","internalType":"uint256"}],"outputs":[{"name":"","type":"bool","internalType":"bool"}],"stateMutability":"nonpayable"},{"type":"function","name":"balanceOf","inputs":[{"name":"account","type":"address","internalType":"address"}],"outputs":[{"name":"","type":"uint256","internalType":"uint256"}],"stateMutability":"view"},{"type":"function","name":"decimals","inputs":[],"outputs":[{"name":"","type":"uint8","internalType":"uint8"}],"stateMutability":"pure"},{"type":"function","name":"faucet","inputs":[],"outputs":[],"stateMutability":"nonpayable"},{"type":"function","name":"mint","inputs":[{"name":"to","type":"address","internalType":"address"},{"name":"amount","type":"uint256","internalType":"uint256"}],"outputs":[],"stateMutability":"nonpayable"},{"type":"function","name":"name","inputs":[],"outputs":[{"name":"","type":"string","internalType":"string"}],"stateMutability":"view"},{"type":"function","name":"owner","inputs":[],"outputs":[{"name":"","type":"address","internalType":"address"}],"stateMutability":"view"},{"type":"function","name":"renounceOwnership","inputs":[],"outputs":[],"stateMutability":"nonpayable"},{"type":"function","name":"symbol","inputs":[],"outputs":[{"name":"","type":"string","internalType":"string"}],"stateMutability":"view"},{"type":"function","name":"totalSupply","inputs":[],"outputs":[{"name":"","type":"uint256","internalType":"uint256"}],"stateMutability":"view"},{"type":"function","name":"transfer","inputs":[{"name":"to","type":"address","internalType":"address"},{"name":"value","type":"uint256","internalType":"uint256"}],"outputs":[{"name":"","type":"bool","internalType":"bool"}],"stateMutability":"nonpayable"},{"type":"function","name":"transferFrom","inputs":[{"name":"from","type":"address","internalType":"address"},{"name":"to","type":"address","internalType":"address"},{"name":"value","type":"uint256","internalType":"uint256"}],"outputs":[{"name":"","type":"bool","internalType":"bool"}],"stateMutability":"nonpayable"},{"type":"function","name":"transferOwnership","inputs":[{"name":"newOwner","type":"address","internalType":"address"}],"outputs":[],"stateMutability":"nonpayable"},{"type":"event","name":"Approval","inputs":[{"name":"owner","type":"address","indexed":true,"internalType":"address"},{"name":"spender","type":"address","indexed":true,"internalType":"address"},{"name":"value","type":"uint256","indexed":false,"internalType":"uint256"}],"anonymous":false},{"type":"event","name":"OwnershipTransferred","inputs":[{"name":"previousOwner","type":"address","indexed":true,"internalType":"address"},{"name":"newOwner","type":"address","indexed":true,"internalType":"address"}],"anonymous":false},{"type":"event","name":"Transfer","inputs":[{"name":"from","type":"address","indexed":true,"internalType":"address"},{"name":"to","type":"address","indexed":true,"internalType":"address"},{"name":"value","type":"uint256","indexed":false,"internalType":"uint256"}],"anonymous":false},{"type":"error","name":"ERC20InsufficientAllowance","inputs":[{"name":"spender","type":"address","internalType":"address"},{"name":"allowance","type":"uint256","internalType":"uint256"},{"name":"needed","type":"uint256","internalType":"uint256"}]},{"type":"error","name":"ERC20InsufficientBalance","inputs":[{"name":"sender","type":"address","internalType":"address"},{"name":"balance","type":"uint256","internalType":"uint256"},{"name":"needed","type":"uint256","internalType":"uint256"}]},{"type":"error","name":"ERC20InvalidApprover","inputs":[{"name":"approver","type":"address","internalType":"address"}]},{"type":"error","name":"ERC20InvalidReceiver","inputs":[{"name":"receiver","type":"address","internalType":"address"}]},{"type":"error","name":"ERC20InvalidSender","inputs":[{"name":"sender","type":"address","internalType":"address"}]},{"type":"error","name":"ERC20InvalidSpender","inputs":[{"name":"spender","type":"address","internalType":"address"}]},{"type":"error","name":"OwnableInvalidOwner","inputs":[{"name":"owner","type":"address","internalType":"address"}]},{"type":"error","name":"OwnableUnauthorizedAccount","inputs":[{"name":"account","type":"address","internalType":"address"}]}],"bytecode":{"object":"0x6080604052346103f457604080519081016001600160401b038111828210176102fc57604090815260088252672aa9a21021b7b4b760c11b602083015280519081016001600160401b038111828210176102fc5760405260048152635553444360e01b602082015281516001600160401b0381116102fc57600354600181811c911680156103ea575b60208210146102de57601f811161037c575b50602092601f821160011461031b57928192935f92610310575b50508160011b915f199060031b1c1916176003555b80516001600160401b0381116102fc57600454600181811c911680156102f2575b60208210146102de57601f8111610270575b50602091601f8211600114610210579181925f92610205575b50508160011b915f199060031b1c1916176004555b33156101f25760058054336001600160a01b0319821681179092556001600160a01b03167f8be0079c531659141344cd1fd0a4f28419497f9722a3daafe3b4186f6b6457e05f80a360025464e8d4a5100081018091116101de57600255335f525f60205260405f2064e8d4a51000815401905560405164e8d4a5100081525f7fddf252ad1be2c89b69c2b068fc378daa952ba7f163c4a11628f55a4df523b3ef60203393a360405161084f90816103f98239f35b634e487b7160e01b5f52601160045260245ffd5b631e4fbdf760e01b5f525f60045260245ffd5b015190505f80610115565b601f1982169260045f52805f20915f5b85811061025857508360019510610240575b505050811b0160045561012a565b01515f1960f88460031b161c191690555f8080610232565b91926020600181928685015181550194019201610220565b818111156100fc5760045f52601f820160051c7f8a35acfbc15ff81a39ae7d344fd709f28e8600b4aa8c65c6b64bfe7fe36bd19b602084106102d6575b81601f9101920160051c03905f5b8281106102c95750506100fc565b5f828201556001016102bb565b5f91506102ad565b634e487b7160e01b5f52602260045260245ffd5b90607f16906100ea565b634e487b7160e01b5f52604160045260245ffd5b015190505f806100b4565b601f1982169360035f52805f20915f5b868110610364575083600195961061034c575b505050811b016003556100c9565b01515f1960f88460031b161c191690555f808061033e565b9192602060018192868501518155019401920161032b565b8181111561009a5760035f52601f820160051c7fc2575a0e9e593c00f959f8c92f12db2869c3395a3b0502d05e2516446f71f85b602084106103e2575b81601f9101920160051c03905f5b8281106103d557505061009a565b5f828201556001016103c7565b5f91506103b9565b90607f1690610088565b5f80fdfe6080806040526004361015610012575f80fd5b5f3560e01c90816306fdde031461059e57508063095ea7b31461051c57806318160ddd146104ff57806323b872dd14610420578063313ce5671461040557806340c10f19146103d057806370a0823114610399578063715018a61461033e5780638da5cb5b1461031657806395d89b41146101fb578063a9059cbb146101ca578063dd62ed3e1461017a578063de5f72fd146101405763f2fde38b146100b6575f80fd5b3461013c57602036600319011261013c576100cf610697565b6100d761076d565b6001600160a01b0316801561012957600580546001600160a01b0319811683179091556001600160a01b03167f8be0079c531659141344cd1fd0a4f28419497f9722a3daafe3b4186f6b6457e05f80a3005b631e4fbdf760e01b5f525f60045260245ffd5b5f80fd5b3461013c575f36600319011261013c5733156101675761016564e8d4a5100033610794565b005b63ec442f0560e01b5f525f60045260245ffd5b3461013c57604036600319011261013c57610193610697565b61019b6106ad565b6001600160a01b039182165f908152600160209081526040808320949093168252928352819020549051908152f35b3461013c57604036600319011261013c576101f06101e6610697565b60243590336106c3565b602060405160018152f35b3461013c575f36600319011261013c576040515f6004548060011c9060018116801561030c575b6020831081146102f8578285529081156102dc5750600114610287575b50819003601f01601f191681019067ffffffffffffffff8211818310176102735761026f8291826040528261066d565b0390f35b634e487b7160e01b5f52604160045260245ffd5b905060045f527f8a35acfbc15ff81a39ae7d344fd709f28e8600b4aa8c65c6b64bfe7fe36bd19b5f905b8282106102c65750602091508201018261023f565b60018160209254838588010152019101906102b1565b90506020925060ff191682840152151560051b8201018261023f565b634e487b7160e01b5f52602260045260245ffd5b91607f1691610222565b3461013c575f36600319011261013c576005546040516001600160a01b039091168152602090f35b3461013c575f36600319011261013c5761035661076d565b600580546001600160a01b031981169091555f906001600160a01b03167f8be0079c531659141344cd1fd0a4f28419497f9722a3daafe3b4186f6b6457e08280a3005b3461013c57602036600319011261013c576001600160a01b036103ba610697565b165f525f602052602060405f2054604051908152f35b3461013c57604036600319011261013c576103e9610697565b6001600160a01b03811615610167576101659060243590610794565b3461013c575f36600319011261013c57602060405160068152f35b3461013c57606036600319011261013c57610439610697565b6104416106ad565b6001600160a01b0382165f818152600160209081526040808320338452909152902054909260443592915f19811061047f575b506101f093506106c3565b8381106104e45784156104d15733156104be576101f0945f52600160205260405f2060018060a01b0333165f526020528360405f209103905584610474565b634a1406b160e11b5f525f60045260245ffd5b63e602df0560e01b5f525f60045260245ffd5b8390637dc7a0d960e11b5f523360045260245260445260645ffd5b3461013c575f36600319011261013c576020600254604051908152f35b3461013c57604036600319011261013c57610535610697565b6024359033156104d1576001600160a01b03169081156104be57335f52600160205260405f20825f526020528060405f20556040519081527f8c5be1e5ebec7d5bd14f71427d1e84f3dd0314c0f7b2291e5b200ac8c7c3b92560203392a3602060405160018152f35b3461013c575f36600319011261013c575f6003548060011c90600181168015610663575b6020831081146102f8578285529081156102dc575060011461060e5750819003601f01601f191681019067ffffffffffffffff8211818310176102735761026f8291826040528261066d565b905060035f527fc2575a0e9e593c00f959f8c92f12db2869c3395a3b0502d05e2516446f71f85b5f905b82821061064d5750602091508201018261023f565b6001816020925483858801015201910190610638565b91607f16916105c2565b602060409281835280519182918282860152018484015e5f828201840152601f01601f1916010190565b600435906001600160a01b038216820361013c57565b602435906001600160a01b038216820361013c57565b6001600160a01b031690811561075a576001600160a01b031691821561016757815f525f60205260405f205481811061074157817fddf252ad1be2c89b69c2b068fc378daa952ba7f163c4a11628f55a4df523b3ef92602092855f525f84520360405f2055845f525f825260405f20818154019055604051908152a3565b8263391434e360e21b5f5260045260245260445260645ffd5b634b637e8f60e11b5f525f60045260245ffd5b6005546001600160a01b0316330361078157565b63118cdaa760e01b5f523360045260245ffd5b60025490828201809211610805576002919091556001600160a01b0316905f907fddf252ad1be2c89b69c2b068fc378daa952ba7f163c4a11628f55a4df523b3ef90602090846107f05780600254036002555b604051908152a3565b848452838252604084208181540190556107e7565b634e487b7160e01b5f52601160045260245ffdfea2646970667358221220fa63289d108471288e8d1699537fa11abf0f306ac8f838cd2e496e2f8f75be6b64736f6c63430008210033","linkReferences":{}},"methodIdentifiers":{"allowance(address,address)":"dd62ed3e","approve(address,uint256)":"095ea7b3","balanceOf(address)":"70a08231","decimals()":"313ce567","faucet()":"de5f72fd","mint(address,uint256)":"40c10f19","name()":"06fdde03","owner()":"8da5cb5b","renounceOwnership()":"715018a6","symbol()":"95d89b41","totalSupply()":"18160ddd","transfer(address,uint256)":"a9059cbb","transferFrom(address,address,uint256)":"23b872dd","transferOwnership(address)":"f2fde38b"},"id":24}