{"abi":[{"type":"constructor","inputs":[{"name":"_groupPurchasingContract","type":"address","internalType":"address"}],"stateMutability":"nonpayable"},{"type":"function","name":"activeRoutes","inputs":[{"name":"","type":"uint256","internalType":"uint256"}],"outputs":[{"name":"","type":"uint256","internalType":"uint256"}],"stateMutability":"view"},{"type":"function","name":"assignCampaignToRoute","inputs":[{"name":"_campaignId","type":"uint256","internalType":"uint256"},{"name":"_routeId","type":"uint256","internalType":"uint256"},{"name":"_containerCount","type":"uint256","internalType":"uint256"},{"name":"_requiresRefrigeration","type":"bool","internalType":"bool"},{"name":"_notes","type":"string","internalType":"string"}],"outputs":[],"stateMutability":"nonpayable"},{"type":"function","name":"campaignShipments","inputs":[{"name":"","type":"uint256","internalType":"uint256"}],"outputs":[{"name":"campaignId","type":"uint256","internalType":"uint256"},{"name":"routeId","type":"uint256","internalType":"uint256"},{"name":"containerCount","type":"uint256","internalType":"uint256"},{"name":"requiresRefrigeration","type":"bool","internalType":"bool"},{"name":"assignedTime","type":"uint256","internalType":"uint256"},{"name":"notes","type":"string","internalType":"string"}],"stateMutability":"view"},{"type":"function","name":"completeRoute","inputs":[{"name":"_routeId","type":"uint256","internalType":"uint256"}],"outputs":[],"stateMutability":"nonpayable"},{"type":"function","name":"createRoute","inputs":[{"name":"_shipId","type":"string","internalType":"string"},{"name":"_shipName","type":"string","internalType":"string"},{"name":"_description","type":"string","internalType":"string"},{"name":"_departurePort","type":"string","internalType":"string"},{"name":"_portNames","type":"string[]","internalType":"string[]"},{"name":"_portCodes","type":"string[]","internalType":"string[]"},{"name":"_countries","type":"string[]","internalType":"string[]"},{"name":"_arrivalTimes","type":"uint256[]","internalType":"uint256[]"},{"name":"_containerCapacity","type":"uint256","internalType":"uint256"},{"name":"_refrigeration","type":"uint8","internalType":"enum ShippingRoutes.RefrigerationType"}],"outputs":[{"name":"","type":"uint256","internalType":"uint256"}],"stateMutability":"nonpayable"},{"type":"function","name":"getActiveRoutes","inputs":[],"outputs":[{"name":"","type":"uint256[]","internalType":"uint256[]"}],"stateMutability":"view"},{"type":"function","name":"getCampaignShipment","inputs":[{"name":"_campaignId","type":"uint256","internalType":"uint256"}],"outputs":[{"name":"routeId","type":"uint256","internalType":"uint256"},{"name":"containerCount","type":"uint256","internalType":"uint256"},{"name":"requiresRefrigeration","type":"bool","internalType":"bool"},{"name":"assignedTime","type":"uint256","internalType":"uint256"},{"name":"notes","type":"string","internalType":"string"}],"stateMutability":"view"},{"type":"function","name":"getRoute","inputs":[{"name":"_routeId","type":"uint256","internalType":"uint256"}],"outputs":[{"name":"shipId","type":"string","internalType":"string"},{"name":"shipName","type":"string","internalType":"string"},{"name":"description","type":"string","internalType":"string"},{"name":"departurePort","type":"string","internalType":"string"},{"name":"containerCapacity","type":"uint256","internalType":"uint256"},{"name":"refrigeration","type":"uint8","internalType":"enum ShippingRoutes.RefrigerationType"},{"name":"status","type":"uint8","internalType":"enum ShippingRoutes.ShipStatus"},{"name":"currentLocation","type":"string","internalType":"string"},{"name":"lastUpdateTime","type":"uint256","internalType":"uint256"},{"name":"active","type":"bool","internalType":"bool"}],"stateMutability":"view"},{"type":"function","name":"getRouteCampaigns","inputs":[{"name":"_routeId","type":"uint256","internalType":"uint256"}],"outputs":[{"name":"","type":"uint256[]","internalType":"uint256[]"}],"stateMutability":"view"},{"type":"function","name":"getRoutePorts","inputs":[{"name":"_routeId","type":"uint256","internalType":"uint256"}],"outputs":[{"name":"","type":"tuple[]","internalType":"struct ShippingRoutes.Port[]","components":[{"name":"portName","type":"string","internalType":"string"},{"name":"portCode","type":"string","internalType":"string"},{"name":"country","type":"string","internalType":"string"},{"name":"arrivalTime","type":"uint256","internalType":"uint256"},{"name":"visited","type":"bool","internalType":"bool"}]}],"stateMutability":"view"},{"type":"function","name":"getTotalRoutes","inputs":[],"outputs":[{"name":"","type":"uint256","internalType":"uint256"}],"stateMutability":"view"},{"type":"function","name":"getUserCampaigns","inputs":[{"name":"_user","type":"address","internalType":"address"}],"outputs":[{"name":"","type":"uint256[]","internalType":"uint256[]"}],"stateMutability":"view"},{"type":"function","name":"groupPurchasingContract","inputs":[],"outputs":[{"name":"","type":"address","internalType":"address"}],"stateMutability":"view"},{"type":"function","name":"markPortVisited","inputs":[{"name":"_routeId","type":"uint256","internalType":"uint256"},{"name":"_portIndex","type":"uint256","internalType":"uint256"}],"outputs":[],"stateMutability":"nonpayable"},{"type":"function","name":"owner","inputs":[],"outputs":[{"name":"","type":"address","internalType":"address"}],"stateMutability":"view"},{"type":"function","name":"renounceOwnership","inputs":[],"outputs":[],"stateMutability":"nonpayable"},{"type":"function","name":"routeToCampaigns","inputs":[{"name":"","type":"uint256","internalType":"uint256"},{"name":"","type":"uint256","internalType":"uint256"}],"outputs":[{"name":"","type":"uint256","internalType":"uint256"}],"stateMutability":"view"},{"type":"function","name":"routes","inputs":[{"name":"","type":"uint256","internalType":"uint256"}],"outputs":[{"name":"routeId","type":"uint256","internalType":"uint256"},{"name":"shipId","type":"string","internalType":"string"},{"name":"shipName","type":"string","internalType":"string"},{"name":"description","type":"string","internalType":"string"},{"name":"departurePort","type":"string","internalType":"string"},{"name":"containerCapacity","type":"uint256","internalType":"uint256"},{"name":"refrigeration","type":"uint8","internalType":"enum ShippingRoutes.RefrigerationType"},{"name":"status","type":"uint8","internalType":"enum ShippingRoutes.ShipStatus"},{"name":"currentPortIndex","type":"uint256","internalType":"uint256"},{"name":"departureTime","type":"uint256","internalType":"uint256"},{"name":"lastUpdateTime","type":"uint256","internalType":"uint256"},{"name":"currentLocation","type":"string","internalType":"string"},{"name":"active","type":"bool","internalType":"bool"},{"name":"creator","type":"address","internalType":"address"}],"stateMutability":"view"},{"type":"function","name":"setGroupPurchasingContract","inputs":[{"name":"_contract","type":"address","internalType":"address"}],"outputs":[],"stateMutability":"nonpayable"},{"type":"function","name":"transferOwnership","inputs":[{"name":"newOwner","type":"address","internalType":"address"}],"outputs":[],"stateMutability":"nonpayable"},{"type":"function","name":"updateRouteStatus","inputs":[{"name":"_routeId","type":"uint256","internalType":"uint256"},{"name":"_status","type":"uint8","internalType":"enum ShippingRoutes.ShipStatus"},{"name":"_location","type":"string","internalType":"string"}],"outputs":[],"stateMutability":"nonpayable"},{"type":"function","name":"userToCampaigns","inputs":[{"name":"","type":"address","internalType":"address"},{"name":"","type":"uint256","internalType":"uint256"}],"outputs":[{"name":"","type":"uint256","internalType":"uint256"}],"stateMutability":"view"},{"type":"event","name":"CampaignAssigned","inputs":[{"name":"campaignId","type":"uint256","indexed":true,"internalType":"uint256"},{"name":"routeId","type":"uint256","indexed":true,"internalType":"uint256"},{"name":"containerCount","type":"uint256","indexed":false,"internalType":"uint256"}],"anonymous":false},{"type":"event","name":"LocationUpdated","inputs":[{"name":"routeId","type":"uint256","indexed":true,"internalType":"uint256"},{"name":"location","type":"string","indexed":false,"internalType":"string"},{"name":"timestamp","type":"uint256","indexed":false,"internalType":"uint256"}],"anonymous":false},{"type":"event","name":"OwnershipTransferred","inputs":[{"name":"previousOwner","type":"address","indexed":true,"internalType":"address"},{"name":"newOwner","type":"address","indexed":true,"internalType":"address"}],"anonymous":false},{"type":"event","name":"PortVisited","inputs":[{"name":"routeId","type":"uint256","indexed":true,"internalType":"uint256"},{"name":"portIndex","type":"uint256","indexed":false,"internalType":"uint256"},{"name":"portName","type":"string","indexed":false,"internalType":"string"},{"name":"timestamp","type":"uint256","indexed":false,"internalType":"uint256"}],"anonymous":false},{"type":"event","name":"RouteCompleted","inputs":[{"name":"routeId","type":"uint256","indexed":true,"internalType":"uint256"},{"name":"timestamp","type":"uint256","indexed":false,"internalType":"uint256"}],"anonymous":false},{"type":"event","name":"RouteCreated","inputs":[{"name":"routeId","type":"uint256","indexed":true,"internalType":"uint256"},{"name":"shipId","type":"string","indexed":false,"internalType":"string"},{"name":"shipName","type":"string","indexed":false,"internalType":"string"},{"name":"creator","type":"address","indexed":true,"internalType":"address"}],"anonymous":false},{"type":"event","name":"RouteUpdated","inputs":[{"name":"routeId","type":"uint256","indexed":true,"internalType":"uint256"},{"name":"status","type":"uint8","indexed":false,"internalType":"enum ShippingRoutes.ShipStatus"},{"name":"location","type":"string","indexed":false,"internalType":"string"}],"anonymous":false},{"type":"error","name":"OwnableInvalidOwner","inputs":[{"name":"owner","type":"address","internalType":"address"}]},{"type":"error","name":"OwnableUnauthorizedAccount","inputs":[{"name":"account","type":"address","internalType":"address"}]}],"bytecode":{"object":"0x60803460d157601f61236238819003918201601f19168301916001600160401b0383118484101760d55780849260209460405283398101031260d157516001600160a01b0381169081900360d157331560be575f8054336001600160a01b0319821681178355604051939290916001600160a01b0316907f8be0079c531659141344cd1fd0a4f28419497f9722a3daafe3b4186f6b6457e09080a3600780546001600160a01b0319169190911790556001805561227890816100ea8239f35b631e4fbdf760e01b5f525f60045260245ffd5b5f80fd5b634e487b7160e01b5f52604160045260245ffdfe60806040526004361015610011575f80fd5b5f3560e01c8063218afcaa14611cd757806325f053da14611a8a578063437a74a9146119025780634ae907a514610f415780634d7ea41414610ef85780636e70f62c14610b29578063715018a614610ad2578063726f16d81461093357806374507637146107d25780638da5cb5b146107ab578063990edf0e14610773578063a1e5084c14610701578063a2343a7514610586578063a51a628c146104fd578063b0071086146104c0578063b1a782c914610446578063b225c1b61461041e578063dbe31deb146103ba578063f2fde38b14610335578063f38a696d146102b1578063f3a2b39a1461026e5763fa66358a1461010b575f80fd5b3461026a57602036600319011261026a576004355f52600260205260405f206101fa60068201546007830154610257600a85015492600b61024a60ff600c89015416946102246040519961016d8b6101668160018501611ef5565b038c611d78565b6102166040519b61018d8d806101868160028801611ef5565b0390611d78565b610208604051916101ac836101a58160038901611ef5565b0384611d78565b6101e2604051956101cb876101c48160048501611ef5565b0388611d78565b6101db604051809c819301611ef5565b038a611d78565b6040519e8f9e8f926101408452610140840190611dee565b916020818403910152611dee565b8c810360408e015290611dee565b908a820360608c0152611dee565b93608089015261023a60a0890160ff8316611f76565b60ff60c089019160081c16611f83565b85820360e0870152611dee565b9161010084015215156101208301520390f35b5f80fd5b3461026a57602036600319011261026a57610287611ea7565b61028f61221c565b600780546001600160a01b0319166001600160a01b0392909216919091179055005b3461026a575f36600319011261026a5760405180602060065491828152019060065f527ff652222313e28459528d920b65115c16c04f3efc82aaedc97be59f3f377c0d3f905f5b81811061031f5761031b8561030f81870382611d78565b60405191829182611f90565b0390f35b82548452602090930192600192830192016102f8565b3461026a57602036600319011261026a5761034e611ea7565b61035661221c565b6001600160a01b031680156103a7575f80546001600160a01b03198116831782556001600160a01b0316907f8be0079c531659141344cd1fd0a4f28419497f9722a3daafe3b4186f6b6457e09080a3005b631e4fbdf760e01b5f525f60045260245ffd5b3461026a57602036600319011261026a576004355f52600360205260405f206040519081602082549182815201915f5260205f20905f5b8181106104085761031b8561030f81870382611d78565b82548452602090930192600192830192016103f1565b3461026a575f36600319011261026a576007546040516001600160a01b039091168152602090f35b3461026a57602036600319011261026a576004355f52600460205260405f20600181015461031b600560028401549360ff6003820154166104966004830154926101a56040518096819301611ef5565b6040519586958652602086015215156040850152606084015260a0608084015260a0830190611dee565b3461026a575f36600319011261026a576001545f1981019081116104e957602090604051908152f35b634e487b7160e01b5f52601160045260245ffd5b3461026a57602036600319011261026a576004355f52600460205260405f20805461031b6005600184015493600281015460ff600383015416906105576004840154936105506040518097819301611ef5565b0385611d78565b60405196879687526020870152604086015215156060850152608084015260c060a084015260c0830190611dee565b3461026a5761059436611d06565b815f52600260205260405f2090600c8201546105b260ff8216611fc9565b3360089190911c6001600160a01b03161480156106ee575b6105d390612008565b6005820180548210156106b457816105ea916120f8565b5090600482019283549360ff85166106785760017f2f4ccafba251e41814be9850d30fd78dfde0f8446507b2bc17e2e0dd80607c529560ff19161790558160088201556007810161020061ff001982541617905561064b83600b8301612143565b600a4291015561066d6040519283928352606060208401526060830190611ef5565b4260408301520390a2005b60405162461bcd60e51b8152602060048201526014602482015273141bdc9d08185b1c9958591e481d9a5cda5d195960621b6044820152606490fd5b60405162461bcd60e51b8152602060048201526012602482015271092dcecc2d8d2c840e0dee4e840d2dcc8caf60731b6044820152606490fd5b505f546001600160a01b031633146105ca565b3461026a57602036600319011261026a576001600160a01b03610722611ea7565b165f52600560205260405f206040519081602082549182815201915f5260205f20905f5b81811061075d5761031b8561030f81870382611d78565b8254845260209093019260019283019201610746565b3461026a57602036600319011261026a5760043560065481101561026a5761079c602091611d1c565b90549060031b1c604051908152f35b3461026a575f36600319011261026a575f546040516001600160a01b039091168152602090f35b3461026a57602036600319011261026a57600435805f52600260205260405f20600c8101805461080460ff8216611fc9565b3360089190911c6001600160a01b0316148015610920575b61082590612008565b60078201805461ff001916610400179055805460ff1916905542600a909101555f5b6006549081811015610919578261085d82611d1c565b90549060031b1c14610873576001915001610847565b5f1982019182116104e95761089a61088d6108b293611d1c565b90549060031b1c91611d1c565b90919082549060031b91821b915f19901b1916179055565b6006548015610905575f19016108c781611d1c565b8154905f199060031b1b191690556006555b7f9ec443c127c15ec42eb0dfbfc170da33c1bdb478f44eb5cc616ebe4f469c66396020604051428152a2005b634e487b7160e01b5f52603160045260245ffd5b50506108d9565b505f546001600160a01b0316331461081c565b3461026a57602036600319011261026a576004355f52600260205260405f208054604051918280600183019061096891611ef5565b036109739084611d78565b60405190816109858160028401611ef5565b036109909083611d78565b604051806109a18160038501611ef5565b036109ac9082611d78565b60405190816109be8160048601611ef5565b036109c99083611d78565b6006830154916007840154600885015490600986015492600a87015494604051978880600b8301906109fa91611ef5565b03610a05908a611d78565b600c0154986040519b8c9b8c5260208c016101c090526101c08c01610a2991611dee565b8b810360408d0152610a3a91611dee565b8a810360608c0152610a4b91611dee565b89810360808b0152610a5c91611dee565b9460a089015260c0880160ff821690610a7491611f76565b60e088019060081c60ff1690610a8991611f83565b610100870152610120860152610140850152838103610160850152610aad91611dee565b60ff8216151561018084015260089190911c6001600160a01b03166101a08301520390f35b3461026a575f36600319011261026a57610aea61221c565b5f80546001600160a01b0319811682556001600160a01b03167f8be0079c531659141344cd1fd0a4f28419497f9722a3daafe3b4186f6b6457e08280a3005b3461026a5760a036600319011261026a5760243560043560443560643580151580820361026a576084356001600160401b03811161026a57610b6f903690600401611d99565b91855f526002602052610b8b60ff600c60405f20015416611fc9565b845f526004602052600160405f200154610eb357855f52600260205260405f2090610e39575b835f875f52600360205260405f205f908054905b818310610dfd57505050600691610bdb91612136565b91015410610dc05760405160c08101918183106001600160401b03841117610dac57600592604052858252610c6260208301918883526040840187815260608501918252608085019342855260a08601978852895f52600460205260405f2095518655516001860155516002850155511515600384019060ff801983541691151516179055565b5160048201550190518051906001600160401b038211610dac57610c9082610c8a8554611ebd565b85612045565b602090601f8311600114610d2457827f209ba4a1633a9af4abd0b9d44be664ca34f83887b32bace988e53762ad6c53b0959360209593610ce5935f92610d19575b50508160011b915f199060031b1c19161790565b90555b845f5260038252610cfc8460405f20612111565b335f5260058252610d108460405f20612111565b604051908152a3005b015190508980610cd1565b90601f19831691845f52815f20925f5b818110610d9457509260019285927f209ba4a1633a9af4abd0b9d44be664ca34f83887b32bace988e53762ad6c53b098966020989610610d7c575b505050811b019055610ce8565b01515f1960f88460031b161c19169055888080610d6f565b92936020600181928786015181550195019301610d34565b634e487b7160e01b5f52604160045260245ffd5b60405162461bcd60e51b8152602060048201526015602482015274496e73756666696369656e7420636170616369747960581b6044820152606490fd5b91935091610e2d600191610e118685611d48565b90549060031b1c5f526004602052600260405f20015490612136565b93019091879392610bc5565b60ff6007820154166004811015610e9f57610bb15760405162461bcd60e51b8152602060048201526024808201527f526f75746520646f6573206e6f7420737570706f7274207265667269676572616044820152633a34b7b760e11b6064820152608490fd5b634e487b7160e01b5f52602160045260245ffd5b60405162461bcd60e51b815260206004820152601960248201527f43616d706169676e20616c72656164792061737369676e6564000000000000006044820152606490fd5b3461026a57604036600319011261026a57610f11611ea7565b6001600160a01b03165f9081526005602052604090208054602435919082101561026a5760209161079c91611d48565b3461026a5761014036600319011261026a576004356001600160401b03811161026a57610f72903690600401611d99565b6024356001600160401b03811161026a57610f91903690600401611d99565b6044356001600160401b03811161026a57610fb0903690600401611d99565b906064356001600160401b03811161026a57610fd0903690600401611d99565b926084356001600160401b03811161026a57610ff0903690600401611e29565b9360a4356001600160401b03811161026a57611010903690600401611e29565b9460c4356001600160401b03811161026a57611030903690600401611e29565b9260e435926001600160401b03841161026a573660238501121561026a5783600401359361105d85611e12565b9461106b6040519687611d78565b8086526024602087019160051b8301019136831161026a57602401905b8282106118f2575050506101243590600482101561026a578351156118a2576110b484518a51146120a3565b6110c184518751146120a3565b6110ce84518651146120a3565b600154915f1983146104e95760018301600155825f52600260205260405f2098838a5560018a0185516001600160401b038111610dac57611119816111138454611ebd565b84612045565b6020601f8211600114611840579080611146925f91611835575b508160011b915f199060031b1c19161790565b90555b60028a0189516001600160401b038111610dac5761116b816111138454611ebd565b6020601f82116001146117d1579080611197925f916117c657508160011b915f199060031b1c19161790565b90555b805160038b01916001600160401b038211610dac576111bd82610c8a8554611ebd565b602090601f8311600114611763576111eb92915f91836117585750508160011b915f199060031b1c19161790565b90555b6004890182516001600160401b038111610dac57611210816111138454611ebd565b6020601f82116001146116f857908061123c925f916116ed57508160011b915f199060031b1c19161790565b90555b6101043560068a015560078901805461ffff191660ff9092169190911790555f60088901554260098901819055600a8901558051600b8901916001600160401b038211610dac5761129482610c8a8554611ebd565b602090601f8311600114611687576112c292915f918361167c5750508160011b915f199060031b1c19161790565b90559594955b600c860180546001600160a81b0319163360081b610100600160a81b03161760011790556005909501945f5b83518110156115fd5761130781856120e4565b51611312828b6120e4565b5161131d83896120e4565b5161132884896120e4565b51906040519361133785611d5d565b845260208401928352604084019081526060840191825260808401925f84528b54600160401b811015610dac57600181018d55611374908d6120f8565b9590956115ea57518051906001600160401b038211610dac576113a18261139b8954611ebd565b89612045565b602090601f8311600114611587576113cf92915f91836114ab5750508160011b915f199060031b1c19161790565b85555b51805160018601916001600160401b038211610dac576113f682610c8a8554611ebd565b602090601f83116001146115245761142492915f91836114ab5750508160011b915f199060031b1c19161790565b90555b51805160028501916001600160401b038211610dac5761144b82610c8a8554611ebd565b602090601f83116001146114b65792611486836114a5979460019a9997946004975f926114ab5750508160011b915f199060031b1c19161790565b90555b51600384015551151591019060ff801983541691151516179055565b016112f4565b015190505f80610cd1565b90601f19831691845f52815f20925f5b81811061150c575093600199989693600496938b93836114a59b98106114f4575b505050811b019055611489565b01515f1960f88460031b161c191690555f80806114e7565b929360206001819287860151815501950193016114c6565b90601f19831691845f52815f20925f5b81811061156f5750908460019594939210611557575b505050811b019055611427565b01515f1960f88460031b161c191690555f808061154a565b92936020600181928786015181550195019301611534565b90601f19831691885f52815f20925f5b8181106115d257509084600195949392106115ba575b505050811b0185556113d2565b01515f1960f88460031b161c191690555f80806115ad565b92936020600181928786015181550195019301611597565b634e487b7160e01b5f525f60045260245ffd5b5086600654600160401b811015610dac577f36ed6ccb110810392bcee97bfe2dd9bc1665a8bfb5e9b19529ff841ac7e4f76e61166360209561164c8661089a8660018398016006556006611d48565b611671604051928392604084526040840190611dee565b828103898401523396611dee565b0390a3604051908152f35b015190508c80610cd1565b90601f19831691845f52815f20925f5b8181106116d557509084600195949392106116bd575b505050811b0190559594956112c8565b01515f1960f88460031b161c191690558b80806116ad565b92936020600181928786015181550195019301611697565b90508501518e611133565b601f19821690835f52805f20915f5b81811061174057509083600194939210611728575b5050811b01905561123f565b8601515f1960f88460031b161c191690558d8061171c565b9192602060018192868b015181550194019201611707565b015190508e80610cd1565b90601f19831691845f52815f20925f5b8181106117ae5750908460019594939210611796575b505050811b0190556111ee565b01515f1960f88460031b161c191690558d8080611789565b92936020600181928786015181550195019301611773565b90508c01518f611133565b5f8381528181209190601f198416908e5b82821061181c5750509083600194939210611804575b5050811b01905561119a565b8d01515f1960f88460031b161c191690558e806117f8565b600184956020939584930151815501940192018e6117e2565b90508801518f611133565b601f19821690835f52805f20915f5b8a82821061188a5750509083600194939210611872575b5050811b019055611149565b8901515f1960f88460031b161c191690558e80611866565b6001849560209395849301518155019401920161184f565b60405162461bcd60e51b815260206004820152602260248201527f4d7573742068617665206174206c65617374206f6e652064657374696e61746960448201526137b760f11b6064820152608490fd5b8135815260209182019101611088565b3461026a57602036600319011261026a576004355f526002602052600560405f200180549061193082611e12565b9161193e6040519384611d78565b8083526020830180925f5260205f205f915b838310611a0657848660405191829160208301906020845251809152604083019060408160051b85010192915f905b82821061198e57505050500390f35b919360019193955060208091603f198982030185528751906080806119e46119d26119c2865160a0875260a0870190611dee565b8787015186820389880152611dee565b60408601518582036040870152611dee565b936060810151606085015201511515910152960192019201859493919261197f565b60056020600192604051611a1981611d5d565b604051611a3181611a2a818a611ef5565b0382611d78565b8152604051611a4681611a2a81898b01611ef5565b83820152604051611a5e81611a2a8160028b01611ef5565b60408201526003860154606082015260ff60048701541615156080820152815201920192019190611950565b3461026a57606036600319011261026a57602435600435600582101561026a576044356001600160401b03811161026a57611ac9903690600401611d99565b815f52600260205260405f2092600c840154611ae760ff8216611fc9565b3360089190911c6001600160a01b0316148015611cc4575b611b0890612008565b60078401805461ff001916600883901b61ff0016179055815193600b81016001600160401b038611610dac57611b4886611b428354611ebd565b83612045565b602095601f8111600114611c1957928596927fe4ddb55c4383df88a3a1ddc52f6234d1be3eef72598215330314c246f413d0e192611bc186611c0398977f08c1aa8a3ded74821ab8fe6981a7dd0f9ebb0c3fcef9196f34b9f4e9d0e4edcd9a975f91611c0e57508160011b915f199060031b1c19161790565b90555b600a42910155611bd76040518092611f83565b6040602082015280611bec6040820186611dee565b0390a2604051918291604083526040830190611dee565b4260208301520390a2005b90508801518c611133565b601f19811696825f52805f20975f5b818110611cac575092600183899a7f08c1aa8a3ded74821ab8fe6981a7dd0f9ebb0c3fcef9196f34b9f4e9d0e4edcd9a9794611c039a99967fe4ddb55c4383df88a3a1ddc52f6234d1be3eef72598215330314c246f413d0e19810611c94575b5050811b019055611bc4565b8901515f1960f88460031b161c191690558b80611c88565b91986020600181928c8b01518155019a019201611c28565b505f546001600160a01b03163314611aff565b3461026a57611ce536611d06565b905f52600360205260405f20805482101561026a5760209161079c91611d48565b604090600319011261026a576004359060243590565b600654811015611d345760065f5260205f2001905f90565b634e487b7160e01b5f52603260045260245ffd5b8054821015611d34575f5260205f2001905f90565b60a081019081106001600160401b03821117610dac57604052565b90601f801991011681019081106001600160401b03821117610dac57604052565b81601f8201121561026a578035906001600160401b038211610dac5760405192611dcd601f8401601f191660200185611d78565b8284526020838301011161026a57815f926020809301838601378301015290565b805180835260209291819084018484015e5f828201840152601f01601f1916010190565b6001600160401b038111610dac5760051b60200190565b9080601f8301121561026a578135611e4081611e12565b92611e4e6040519485611d78565b81845260208085019260051b8201019183831161026a5760208201905b838210611e7a57505050505090565b81356001600160401b03811161026a57602091611e9c87848094880101611d99565b815201910190611e6b565b600435906001600160a01b038216820361026a57565b90600182811c92168015611eeb575b6020831014611ed757565b634e487b7160e01b5f52602260045260245ffd5b91607f1691611ecc565b5f9291815491611f0483611ebd565b8083529260018116908115611f595750600114611f2057505050565b5f9081526020812093945091925b838310611f3f575060209250010190565b600181602092949394548385870101520191019190611f2e565b915050602093945060ff929192191683830152151560051b010190565b906004821015610e9f5752565b906005821015610e9f5752565b60206040818301928281528451809452019201905f5b818110611fb35750505090565b8251845260209384019390920191600101611fa6565b15611fd057565b60405162461bcd60e51b815260206004820152601060248201526f526f757465206e6f742061637469766560801b6044820152606490fd5b1561200f57565b60405162461bcd60e51b815260206004820152600e60248201526d139bdd08185d5d1a1bdc9a5e995960921b6044820152606490fd5b919091601f8311612056575b505050565b81831161206257505050565b5f5260205f206020601f830160051c921061209b575b81601f9101920160051c03905f5b82811015612051575f82820155600101612086565b5f9150612078565b156120aa57565b60405162461bcd60e51b81526020600482015260126024820152710a0dee4e840c8c2e8c240dad2e6dac2e8c6d60731b6044820152606490fd5b8051821015611d345760209160051b010190565b8054821015611d34575f52600560205f20910201905f90565b90815491600160401b831015610dac578261089a91600161213495018155611d48565b565b919082018092116104e957565b919091828114612217576121578354611ebd565b6001600160401b038111610dac57612173816111138454611ebd565b5f93601f82116001146121b1576121a292939482915f926121a65750508160011b915f199060031b1c19161790565b9055565b015490505f80610cd1565b601f198216905f5260205f2094835f5260205f20915f5b8181106121ff575095836001959697106121e7575b505050811b019055565b01545f1960f88460031b161c191690555f80806121dd565b9192600180602092868b0154815501940192016121c8565b509050565b5f546001600160a01b0316330361222f57565b63118cdaa760e01b5f523360045260245ffdfea264697066735822122020f7d440d1a98da8c829c471be02bbb3ab51e156168703da93d4887f9e09ee6664736f6c63430008210033","linkReferences":{}},"methodIdentifiers":{"activeRoutes(uint256)":"990edf0e","assignCampaignToRoute(uint256,uint256,uint256,bool,string)":"6e70f62c","campaignShipments(uint256)":"a51a628c","completeRoute(uint256)":"74507637","createRoute(string,string,string,string,string[],string[],string[],uint256[],uint256,uint8)":"4ae907a5","getActiveRoutes()":"f38a696d","getCampaignShipment(uint256)":"b1a782c9","getRoute(uint256)":"fa66358a","getRouteCampaigns(uint256)":"dbe31deb","getRoutePorts(uint256)":"437a74a9","getTotalRoutes()":"b0071086","getUserCampaigns(address)":"a1e5084c","groupPurchasingContract()":"b225c1b6","markPortVisited(uint256,uint256)":"a2343a75","owner()":"8da5cb5b","renounceOwnership()":"715018a6","routeToCampaigns(uint256,uint256)":"218afcaa","routes(uint256)":"726f16d8","setGroupPurchasingContract(address)":"f3a2b39a","transferOwnership(address)":"f2fde38b","updateRouteStatus(uint256,uint8,string)":"25f053da","userToCampaigns(address,uint256)":"4d7ea414"},"id":25}